{
  "_format": "hh-sol-artifact-1",
  "contractName": "Booking",
  "sourceName": "contracts/Booking.sol",
  "abi": [
    {
      "inputs": [],
      "stateMutability": "nonpayable",
      "type": "constructor"
    },
    {
      "anonymous": false,
      "inputs": [
        {
          "indexed": true,
          "internalType": "address",
          "name": "owner",
          "type": "address"
        },
        {
          "indexed": true,
          "internalType": "address",
          "name": "approved",
          "type": "address"
        },
        {
          "indexed": true,
          "internalType": "uint256",
          "name": "tokenId",
          "type": "uint256"
        }
      ],
      "name": "Approval",
      "type": "event"
    },
    {
      "anonymous": false,
      "inputs": [
        {
          "indexed": true,
          "internalType": "address",
          "name": "owner",
          "type": "address"
        },
        {
          "indexed": true,
          "internalType": "address",
          "name": "operator",
          "type": "address"
        },
        {
          "indexed": false,
          "internalType": "bool",
          "name": "approved",
          "type": "bool"
        }
      ],
      "name": "ApprovalForAll",
      "type": "event"
    },
    {
      "anonymous": false,
      "inputs": [
        {
          "indexed": false,
          "internalType": "uint256",
          "name": "id",
          "type": "uint256"
        },
        {
          "indexed": false,
          "internalType": "string",
          "name": "name",
          "type": "string"
        },
        {
          "indexed": false,
          "internalType": "uint256",
          "name": "maxTickets",
          "type": "uint256"
        },
        {
          "indexed": false,
          "internalType": "uint256",
          "name": "cost",
          "type": "uint256"
        },
        {
          "indexed": false,
          "internalType": "string",
          "name": "date",
          "type": "string"
        },
        {
          "indexed": false,
          "internalType": "string",
          "name": "time",
          "type": "string"
        },
        {
          "indexed": false,
          "internalType": "string",
          "name": "location",
          "type": "string"
        },
        {
          "indexed": false,
          "internalType": "address",
          "name": "listedBy",
          "type": "address"
        }
      ],
      "name": "EventListed",
      "type": "event"
    },
    {
      "anonymous": false,
      "inputs": [
        {
          "indexed": true,
          "internalType": "address",
          "name": "from",
          "type": "address"
        },
        {
          "indexed": true,
          "internalType": "address",
          "name": "to",
          "type": "address"
        },
        {
          "indexed": true,
          "internalType": "uint256",
          "name": "tokenId",
          "type": "uint256"
        }
      ],
      "name": "Transfer",
      "type": "event"
    },
    {
      "inputs": [
        {
          "internalType": "address",
          "name": "to",
          "type": "address"
        },
        {
          "internalType": "uint256",
          "name": "tokenId",
          "type": "uint256"
        }
      ],
      "name": "approve",
      "outputs": [],
      "stateMutability": "nonpayable",
      "type": "function"
    },
    {
      "inputs": [
        {
          "internalType": "address",
          "name": "owner",
          "type": "address"
        }
      ],
      "name": "balanceOf",
      "outputs": [
        {
          "internalType": "uint256",
          "name": "",
          "type": "uint256"
        }
      ],
      "stateMutability": "view",
      "type": "function"
    },
    {
      "inputs": [
        {
          "internalType": "uint256",
          "name": "",
          "type": "uint256"
        }
      ],
      "name": "events",
      "outputs": [
        {
          "internalType": "uint256",
          "name": "id",
          "type": "uint256"
        },
        {
          "internalType": "string",
          "name": "name",
          "type": "string"
        },
        {
          "internalType": "uint256",
          "name": "tickets",
          "type": "uint256"
        },
        {
          "internalType": "uint256",
          "name": "maxTickets",
          "type": "uint256"
        },
        {
          "internalType": "uint256",
          "name": "cost",
          "type": "uint256"
        },
        {
          "internalType": "string",
          "name": "date",
          "type": "string"
        },
        {
          "internalType": "string",
          "name": "time",
          "type": "string"
        },
        {
          "internalType": "string",
          "name": "location",
          "type": "string"
        },
        {
          "internalType": "address",
          "name": "listedBy",
          "type": "address"
        }
      ],
      "stateMutability": "view",
      "type": "function"
    },
    {
      "inputs": [
        {
          "internalType": "uint256",
          "name": "tokenId",
          "type": "uint256"
        }
      ],
      "name": "getApproved",
      "outputs": [
        {
          "internalType": "address",
          "name": "",
          "type": "address"
        }
      ],
      "stateMutability": "view",
      "type": "function"
    },
    {
      "inputs": [
        {
          "internalType": "uint256",
          "name": "_id",
          "type": "uint256"
        }
      ],
      "name": "getSeatsTaken",
      "outputs": [
        {
          "internalType": "uint256[]",
          "name": "",
          "type": "uint256[]"
        }
      ],
      "stateMutability": "view",
      "type": "function"
    },
    {
      "inputs": [
        {
          "internalType": "address",
          "name": "owner",
          "type": "address"
        },
        {
          "internalType": "address",
          "name": "operator",
          "type": "address"
        }
      ],
      "name": "isApprovedForAll",
      "outputs": [
        {
          "internalType": "bool",
          "name": "",
          "type": "bool"
        }
      ],
      "stateMutability": "view",
      "type": "function"
    },
    {
      "inputs": [
        {
          "internalType": "string",
          "name": "_name",
          "type": "string"
        },
        {
          "internalType": "uint256",
          "name": "_maxTickets",
          "type": "uint256"
        },
        {
          "internalType": "uint256",
          "name": "_cost",
          "type": "uint256"
        },
        {
          "internalType": "string",
          "name": "_time",
          "type": "string"
        },
        {
          "internalType": "string",
          "name": "_location",
          "type": "string"
        },
        {
          "internalType": "string",
          "name": "_date",
          "type": "string"
        }
      ],
      "name": "listEvent",
      "outputs": [],
      "stateMutability": "nonpayable",
      "type": "function"
    },
    {
      "inputs": [
        {
          "internalType": "uint256",
          "name": "_id",
          "type": "uint256"
        },
        {
          "internalType": "uint256",
          "name": "_seat",
          "type": "uint256"
        }
      ],
      "name": "mint",
      "outputs": [],
      "stateMutability": "payable",
      "type": "function"
    },
    {
      "inputs": [],
      "name": "name",
      "outputs": [
        {
          "internalType": "string",
          "name": "",
          "type": "string"
        }
      ],
      "stateMutability": "view",
      "type": "function"
    },
    {
      "inputs": [],
      "name": "owner",
      "outputs": [
        {
          "internalType": "address",
          "name": "",
          "type": "address"
        }
      ],
      "stateMutability": "view",
      "type": "function"
    },
    {
      "inputs": [
        {
          "internalType": "uint256",
          "name": "tokenId",
          "type": "uint256"
        }
      ],
      "name": "ownerOf",
      "outputs": [
        {
          "internalType": "address",
          "name": "",
          "type": "address"
        }
      ],
      "stateMutability": "view",
      "type": "function"
    },
    {
      "inputs": [
        {
          "internalType": "address",
          "name": "from",
          "type": "address"
        },
        {
          "internalType": "address",
          "name": "to",
          "type": "address"
        },
        {
          "internalType": "uint256",
          "name": "tokenId",
          "type": "uint256"
        }
      ],
      "name": "safeTransferFrom",
      "outputs": [],
      "stateMutability": "nonpayable",
      "type": "function"
    },
    {
      "inputs": [
        {
          "internalType": "address",
          "name": "from",
          "type": "address"
        },
        {
          "internalType": "address",
          "name": "to",
          "type": "address"
        },
        {
          "internalType": "uint256",
          "name": "tokenId",
          "type": "uint256"
        },
        {
          "internalType": "bytes",
          "name": "data",
          "type": "bytes"
        }
      ],
      "name": "safeTransferFrom",
      "outputs": [],
      "stateMutability": "nonpayable",
      "type": "function"
    },
    {
      "inputs": [
        {
          "internalType": "uint256",
          "name": "",
          "type": "uint256"
        },
        {
          "internalType": "uint256",
          "name": "",
          "type": "uint256"
        }
      ],
      "name": "seats",
      "outputs": [
        {
          "internalType": "address",
          "name": "",
          "type": "address"
        }
      ],
      "stateMutability": "view",
      "type": "function"
    },
    {
      "inputs": [
        {
          "internalType": "uint256",
          "name": "",
          "type": "uint256"
        },
        {
          "internalType": "uint256",
          "name": "",
          "type": "uint256"
        }
      ],
      "name": "seatsTaken",
      "outputs": [
        {
          "internalType": "uint256",
          "name": "",
          "type": "uint256"
        }
      ],
      "stateMutability": "view",
      "type": "function"
    },
    {
      "inputs": [
        {
          "internalType": "address",
          "name": "operator",
          "type": "address"
        },
        {
          "internalType": "bool",
          "name": "approved",
          "type": "bool"
        }
      ],
      "name": "setApprovalForAll",
      "outputs": [],
      "stateMutability": "nonpayable",
      "type": "function"
    },
    {
      "inputs": [
        {
          "internalType": "bytes4",
          "name": "interfaceId",
          "type": "bytes4"
        }
      ],
      "name": "supportsInterface",
      "outputs": [
        {
          "internalType": "bool",
          "name": "",
          "type": "bool"
        }
      ],
      "stateMutability": "view",
      "type": "function"
    },
    {
      "inputs": [],
      "name": "symbol",
      "outputs": [
        {
          "internalType": "string",
          "name": "",
          "type": "string"
        }
      ],
      "stateMutability": "view",
      "type": "function"
    },
    {
      "inputs": [
        {
          "internalType": "uint256",
          "name": "tokenId",
          "type": "uint256"
        }
      ],
      "name": "tokenURI",
      "outputs": [
        {
          "internalType": "string",
          "name": "",
          "type": "string"
        }
      ],
      "stateMutability": "view",
      "type": "function"
    },
    {
      "inputs": [],
      "name": "totalEvents",
      "outputs": [
        {
          "internalType": "uint256",
          "name": "",
          "type": "uint256"
        }
      ],
      "stateMutability": "view",
      "type": "function"
    },
    {
      "inputs": [],
      "name": "totalSupply",
      "outputs": [
        {
          "internalType": "uint256",
          "name": "",
          "type": "uint256"
        }
      ],
      "stateMutability": "view",
      "type": "function"
    },
    {
      "inputs": [
        {
          "internalType": "address",
          "name": "from",
          "type": "address"
        },
        {
          "internalType": "address",
          "name": "to",
          "type": "address"
        },
        {
          "internalType": "uint256",
          "name": "tokenId",
          "type": "uint256"
        }
      ],
      "name": "transferFrom",
      "outputs": [],
      "stateMutability": "nonpayable",
      "type": "function"
    }
  ],
  "bytecode": "0x6080604052600060065560006007553480156200001b57600080fd5b506040518060400160405280600781526020017f426f6f6b696e67000000000000000000000000000000000000000000000000008152506040518060400160405280600481526020017f424f4f4b0000000000000000000000000000000000000000000000000000000081525081600090816200009991906200036f565b508060019081620000ab91906200036f565b50505033600860006101000a81548173ffffffffffffffffffffffffffffffffffffffff021916908373ffffffffffffffffffffffffffffffffffffffff16021790555062000456565b600081519050919050565b7f4e487b7100000000000000000000000000000000000000000000000000000000600052604160045260246000fd5b7f4e487b7100000000000000000000000000000000000000000000000000000000600052602260045260246000fd5b600060028204905060018216806200017757607f821691505b6020821081036200018d576200018c6200012f565b5b50919050565b60008190508160005260206000209050919050565b60006020601f8301049050919050565b600082821b905092915050565b600060088302620001f77fffffffffffffffffffffffffffffffffffffffffffffffffffffffffffffffff82620001b8565b620002038683620001b8565b95508019841693508086168417925050509392505050565b6000819050919050565b6000819050919050565b6000620002506200024a62000244846200021b565b62000225565b6200021b565b9050919050565b6000819050919050565b6200026c836200022f565b620002846200027b8262000257565b848454620001c5565b825550505050565b600090565b6200029b6200028c565b620002a881848462000261565b505050565b5b81811015620002d057620002c460008262000291565b600181019050620002ae565b5050565b601f8211156200031f57620002e98162000193565b620002f484620001a8565b8101602085101562000304578190505b6200031c6200031385620001a8565b830182620002ad565b50505b505050565b600082821c905092915050565b6000620003446000198460080262000324565b1980831691505092915050565b60006200035f838362000331565b9150826002028217905092915050565b6200037a82620000f5565b67ffffffffffffffff81111562000396576200039562000100565b5b620003a282546200015e565b620003af828285620002d4565b600060209050601f831160018114620003e75760008415620003d2578287015190505b620003de858262000351565b8655506200044e565b601f198416620003f78662000193565b60005b828110156200042157848901518255600182019150602085019450602081019050620003fa565b868310156200044157848901516200043d601f89168262000331565b8355505b6001600288020188555050505b505050505050565b6136e980620004666000396000f3fe6080604052600436106101355760003560e01c80636352211e116100ab578063abcda41d1161006f578063abcda41d14610459578063b88d4fde14610482578063ba870686146104ab578063c87b56dd146104d6578063e985e9c514610513578063eec2ff1b1461055057610135565b80636352211e1461036057806370a082311461039d5780638da5cb5b146103da57806395d89b4114610405578063a22cb4651461043057610135565b80630ef7ec74116100fd5780630ef7ec741461024d57806318160ddd1461028a5780631b2ef1ca146102b557806323b872dd146102d157806342842e0e146102fa5780634e7497fc1461032357610135565b806301ffc9a71461013a57806306fdde0314610177578063081812fc146101a2578063095ea7b3146101df5780630b79143014610208575b600080fd5b34801561014657600080fd5b50610161600480360381019061015c919061218b565b61058d565b60405161016e91906121d3565b60405180910390f35b34801561018357600080fd5b5061018c61066f565b604051610199919061227e565b60405180910390f35b3480156101ae57600080fd5b506101c960048036038101906101c491906122d6565b610701565b6040516101d69190612344565b60405180910390f35b3480156101eb57600080fd5b506102066004803603810190610201919061238b565b610747565b005b34801561021457600080fd5b5061022f600480360381019061022a91906122d6565b61085e565b604051610244999897969594939291906123da565b60405180910390f35b34801561025957600080fd5b50610274600480360381019061026f91906122d6565b610aec565b6040516102819190612541565b60405180910390f35b34801561029657600080fd5b5061029f610b57565b6040516102ac9190612563565b60405180910390f35b6102cf60048036038101906102ca919061257e565b610b5d565b005b3480156102dd57600080fd5b506102f860048036038101906102f391906125be565b610d53565b005b34801561030657600080fd5b50610321600480360381019061031c91906125be565b610db3565b005b34801561032f57600080fd5b5061034a6004803603810190610345919061257e565b610dd3565b6040516103579190612563565b60405180910390f35b34801561036c57600080fd5b50610387600480360381019061038291906122d6565b610e04565b6040516103949190612344565b60405180910390f35b3480156103a957600080fd5b506103c460048036038101906103bf9190612611565b610e8a565b6040516103d19190612563565b60405180910390f35b3480156103e657600080fd5b506103ef610f41565b6040516103fc9190612344565b60405180910390f35b34801561041157600080fd5b5061041a610f67565b604051610427919061227e565b60405180910390f35b34801561043c57600080fd5b506104576004803603810190610452919061266a565b610ff9565b005b34801561046557600080fd5b50610480600480360381019061047b91906127df565b61100f565b005b34801561048e57600080fd5b506104a960048036038101906104a4919061297d565b6111ab565b005b3480156104b757600080fd5b506104c061120d565b6040516104cd9190612563565b60405180910390f35b3480156104e257600080fd5b506104fd60048036038101906104f891906122d6565b611213565b60405161050a919061227e565b60405180910390f35b34801561051f57600080fd5b5061053a60048036038101906105359190612a00565b61127b565b60405161054791906121d3565b60405180910390f35b34801561055c57600080fd5b506105776004803603810190610572919061257e565b61130f565b6040516105849190612344565b60405180910390f35b60007f80ac58cd000000000000000000000000000000000000000000000000000000007bffffffffffffffffffffffffffffffffffffffffffffffffffffffff1916827bffffffffffffffffffffffffffffffffffffffffffffffffffffffff1916148061065857507f5b5e139f000000000000000000000000000000000000000000000000000000007bffffffffffffffffffffffffffffffffffffffffffffffffffffffff1916827bffffffffffffffffffffffffffffffffffffffffffffffffffffffff1916145b80610668575061066782611351565b5b9050919050565b60606000805461067e90612a6f565b80601f01602080910402602001604051908101604052809291908181526020018280546106aa90612a6f565b80156106f75780601f106106cc576101008083540402835291602001916106f7565b820191906000526020600020905b8154815290600101906020018083116106da57829003601f168201915b5050505050905090565b600061070c826113bb565b6004600083815260200190815260200160002060009054906101000a900473ffffffffffffffffffffffffffffffffffffffff169050919050565b600061075282610e04565b90508073ffffffffffffffffffffffffffffffffffffffff168373ffffffffffffffffffffffffffffffffffffffff16036107c2576040517f08c379a00000000000000000000000000000000000000000000000000000000081526004016107b990612b12565b60405180910390fd5b8073ffffffffffffffffffffffffffffffffffffffff166107e1611406565b73ffffffffffffffffffffffffffffffffffffffff161480610810575061080f8161080a611406565b61127b565b5b61084f576040517f08c379a000000000000000000000000000000000000000000000000000000000815260040161084690612ba4565b60405180910390fd5b610859838361140e565b505050565b600960205280600052604060002060009150905080600001549080600101805461088790612a6f565b80601f01602080910402602001604051908101604052809291908181526020018280546108b390612a6f565b80156109005780601f106108d557610100808354040283529160200191610900565b820191906000526020600020905b8154815290600101906020018083116108e357829003601f168201915b50505050509080600201549080600301549080600401549080600501805461092790612a6f565b80601f016020809104026020016040519081016040528092919081815260200182805461095390612a6f565b80156109a05780601f10610975576101008083540402835291602001916109a0565b820191906000526020600020905b81548152906001019060200180831161098357829003601f168201915b5050505050908060060180546109b590612a6f565b80601f01602080910402602001604051908101604052809291908181526020018280546109e190612a6f565b8015610a2e5780601f10610a0357610100808354040283529160200191610a2e565b820191906000526020600020905b815481529060010190602001808311610a1157829003601f168201915b505050505090806007018054610a4390612a6f565b80601f0160208091040260200160405190810160405280929190818152602001828054610a6f90612a6f565b8015610abc5780601f10610a9157610100808354040283529160200191610abc565b820191906000526020600020905b815481529060010190602001808311610a9f57829003601f168201915b5050505050908060080160009054906101000a900473ffffffffffffffffffffffffffffffffffffffff16905089565b6060600a6000838152602001908152602001600020805480602002602001604051908101604052809291908181526020018280548015610b4b57602002820191906000526020600020905b815481526020019060010190808311610b37575b50505050509050919050565b60075481565b600654821115610ba2576040517f08c379a0000000000000000000000000000000000000000000000000000000008152600401610b9990612c10565b60405180910390fd5b6009600083815260200190815260200160002060040154341015610bfb576040517f08c379a0000000000000000000000000000000000000000000000000000000008152600401610bf290612c7c565b60405180910390fd5b6009600083815260200190815260200160002060030154811115610c54576040517f08c379a0000000000000000000000000000000000000000000000000000000008152600401610c4b90612ce8565b60405180910390fd5b60016009600084815260200190815260200160002060020154610c779190612d37565b600960008481526020019081526020016000206002018190555033600b6000848152602001908152602001600020600083815260200190815260200160002060006101000a81548173ffffffffffffffffffffffffffffffffffffffff021916908373ffffffffffffffffffffffffffffffffffffffff160217905550600a60008381526020019081526020016000208190806001815401808255809150506001900390600052602060002001600090919091909150556001600754610d3d9190612d6b565b600781905550610d4f336007546114c7565b5050565b610d64610d5e611406565b826114e5565b610da3576040517f08c379a0000000000000000000000000000000000000000000000000000000008152600401610d9a90612e11565b60405180910390fd5b610dae83838361157a565b505050565b610dce838383604051806020016040528060008152506111ab565b505050565b600a6020528160005260406000208181548110610def57600080fd5b90600052602060002001600091509150505481565b600080610e1083611873565b9050600073ffffffffffffffffffffffffffffffffffffffff168173ffffffffffffffffffffffffffffffffffffffff1603610e81576040517f08c379a0000000000000000000000000000000000000000000000000000000008152600401610e7890612e7d565b60405180910390fd5b80915050919050565b60008073ffffffffffffffffffffffffffffffffffffffff168273ffffffffffffffffffffffffffffffffffffffff1603610efa576040517f08c379a0000000000000000000000000000000000000000000000000000000008152600401610ef190612f0f565b60405180910390fd5b600360008373ffffffffffffffffffffffffffffffffffffffff1673ffffffffffffffffffffffffffffffffffffffff168152602001908152602001600020549050919050565b600860009054906101000a900473ffffffffffffffffffffffffffffffffffffffff1681565b606060018054610f7690612a6f565b80601f0160208091040260200160405190810160405280929190818152602001828054610fa290612a6f565b8015610fef5780601f10610fc457610100808354040283529160200191610fef565b820191906000526020600020905b815481529060010190602001808311610fd257829003601f168201915b5050505050905090565b61100b611004611406565b83836118b0565b5050565b600160065461101e9190612d6b565b60068190555060405180610120016040528060065481526020018781526020018681526020018681526020018581526020018281526020018481526020018381526020013373ffffffffffffffffffffffffffffffffffffffff168152506009600060065481526020019081526020016000206000820151816000015560208201518160010190816110b091906130db565b5060408201518160020155606082015181600301556080820151816004015560a08201518160050190816110e491906130db565b5060c08201518160060190816110fa91906130db565b5060e082015181600701908161111091906130db565b506101008201518160080160006101000a81548173ffffffffffffffffffffffffffffffffffffffff021916908373ffffffffffffffffffffffffffffffffffffffff1602179055509050507f2df6853f956aa7077b00d589fcaf8ea4dd7377da3ca577dc3886fa8847ed363d6006548787878588883360405161119b9897969594939291906131ad565b60405180910390a1505050505050565b6111bc6111b6611406565b836114e5565b6111fb576040517f08c379a00000000000000000000000000000000000000000000000000000000081526004016111f290612e11565b60405180910390fd5b61120784848484611a1c565b50505050565b60065481565b606061121e826113bb565b6000611228611a78565b905060008151116112485760405180602001604052806000815250611273565b8061125284611a8f565b604051602001611263929190613283565b6040516020818303038152906040525b915050919050565b6000600560008473ffffffffffffffffffffffffffffffffffffffff1673ffffffffffffffffffffffffffffffffffffffff16815260200190815260200160002060008373ffffffffffffffffffffffffffffffffffffffff1673ffffffffffffffffffffffffffffffffffffffff16815260200190815260200160002060009054906101000a900460ff16905092915050565b600b6020528160005260406000206020528060005260406000206000915091509054906101000a900473ffffffffffffffffffffffffffffffffffffffff1681565b60007f01ffc9a7000000000000000000000000000000000000000000000000000000007bffffffffffffffffffffffffffffffffffffffffffffffffffffffff1916827bffffffffffffffffffffffffffffffffffffffffffffffffffffffff1916149050919050565b6113c481611b5d565b611403576040517f08c379a00000000000000000000000000000000000000000000000000000000081526004016113fa90612e7d565b60405180910390fd5b50565b600033905090565b816004600083815260200190815260200160002060006101000a81548173ffffffffffffffffffffffffffffffffffffffff021916908373ffffffffffffffffffffffffffffffffffffffff160217905550808273ffffffffffffffffffffffffffffffffffffffff1661148183610e04565b73ffffffffffffffffffffffffffffffffffffffff167f8c5be1e5ebec7d5bd14f71427d1e84f3dd0314c0f7b2291e5b200ac8c7c3b92560405160405180910390a45050565b6114e1828260405180602001604052806000815250611b9e565b5050565b6000806114f183610e04565b90508073ffffffffffffffffffffffffffffffffffffffff168473ffffffffffffffffffffffffffffffffffffffff1614806115335750611532818561127b565b5b8061157157508373ffffffffffffffffffffffffffffffffffffffff1661155984610701565b73ffffffffffffffffffffffffffffffffffffffff16145b91505092915050565b8273ffffffffffffffffffffffffffffffffffffffff1661159a82610e04565b73ffffffffffffffffffffffffffffffffffffffff16146115f0576040517f08c379a00000000000000000000000000000000000000000000000000000000081526004016115e790613319565b60405180910390fd5b600073ffffffffffffffffffffffffffffffffffffffff168273ffffffffffffffffffffffffffffffffffffffff160361165f576040517f08c379a0000000000000000000000000000000000000000000000000000000008152600401611656906133ab565b60405180910390fd5b61166c8383836001611bf9565b8273ffffffffffffffffffffffffffffffffffffffff1661168c82610e04565b73ffffffffffffffffffffffffffffffffffffffff16146116e2576040517f08c379a00000000000000000000000000000000000000000000000000000000081526004016116d990613319565b60405180910390fd5b6004600082815260200190815260200160002060006101000a81549073ffffffffffffffffffffffffffffffffffffffff02191690556001600360008573ffffffffffffffffffffffffffffffffffffffff1673ffffffffffffffffffffffffffffffffffffffff168152602001908152602001600020600082825403925050819055506001600360008473ffffffffffffffffffffffffffffffffffffffff1673ffffffffffffffffffffffffffffffffffffffff16815260200190815260200160002060008282540192505081905550816002600083815260200190815260200160002060006101000a81548173ffffffffffffffffffffffffffffffffffffffff021916908373ffffffffffffffffffffffffffffffffffffffff160217905550808273ffffffffffffffffffffffffffffffffffffffff168473ffffffffffffffffffffffffffffffffffffffff167fddf252ad1be2c89b69c2b068fc378daa952ba7f163c4a11628f55a4df523b3ef60405160405180910390a461186e8383836001611bff565b505050565b60006002600083815260200190815260200160002060009054906101000a900473ffffffffffffffffffffffffffffffffffffffff169050919050565b8173ffffffffffffffffffffffffffffffffffffffff168373ffffffffffffffffffffffffffffffffffffffff160361191e576040517f08c379a000000000000000000000000000000000000000000000000000000000815260040161191590613417565b60405180910390fd5b80600560008573ffffffffffffffffffffffffffffffffffffffff1673ffffffffffffffffffffffffffffffffffffffff16815260200190815260200160002060008473ffffffffffffffffffffffffffffffffffffffff1673ffffffffffffffffffffffffffffffffffffffff16815260200190815260200160002060006101000a81548160ff0219169083151502179055508173ffffffffffffffffffffffffffffffffffffffff168373ffffffffffffffffffffffffffffffffffffffff167f17307eab39ab6107e8899845ad3d59bd9653f200f220920489ca2b5937696c3183604051611a0f91906121d3565b60405180910390a3505050565b611a2784848461157a565b611a3384848484611c05565b611a72576040517f08c379a0000000000000000000000000000000000000000000000000000000008152600401611a69906134a9565b60405180910390fd5b50505050565b606060405180602001604052806000815250905090565b606060006001611a9e84611d8c565b01905060008167ffffffffffffffff811115611abd57611abc6126b4565b5b6040519080825280601f01601f191660200182016040528015611aef5781602001600182028036833780820191505090505b509050600082602001820190505b600115611b52578080600190039150507f3031323334353637383961626364656600000000000000000000000000000000600a86061a8153600a8581611b4657611b456134c9565b5b04945060008503611afd575b819350505050919050565b60008073ffffffffffffffffffffffffffffffffffffffff16611b7f83611873565b73ffffffffffffffffffffffffffffffffffffffff1614159050919050565b611ba88383611edf565b611bb56000848484611c05565b611bf4576040517f08c379a0000000000000000000000000000000000000000000000000000000008152600401611beb906134a9565b60405180910390fd5b505050565b50505050565b50505050565b6000611c268473ffffffffffffffffffffffffffffffffffffffff166120fc565b15611d7f578373ffffffffffffffffffffffffffffffffffffffff1663150b7a02611c4f611406565b8786866040518563ffffffff1660e01b8152600401611c71949392919061354d565b6020604051808303816000875af1925050508015611cad57506040513d601f19601f82011682018060405250810190611caa91906135ae565b60015b611d2f573d8060008114611cdd576040519150601f19603f3d011682016040523d82523d6000602084013e611ce2565b606091505b506000815103611d27576040517f08c379a0000000000000000000000000000000000000000000000000000000008152600401611d1e906134a9565b60405180910390fd5b805181602001fd5b63150b7a0260e01b7bffffffffffffffffffffffffffffffffffffffffffffffffffffffff1916817bffffffffffffffffffffffffffffffffffffffffffffffffffffffff191614915050611d84565b600190505b949350505050565b600080600090507a184f03e93ff9f4daa797ed6e38ed64bf6a1f0100000000000000008310611dea577a184f03e93ff9f4daa797ed6e38ed64bf6a1f0100000000000000008381611de057611ddf6134c9565b5b0492506040810190505b6d04ee2d6d415b85acef81000000008310611e27576d04ee2d6d415b85acef81000000008381611e1d57611e1c6134c9565b5b0492506020810190505b662386f26fc100008310611e5657662386f26fc100008381611e4c57611e4b6134c9565b5b0492506010810190505b6305f5e1008310611e7f576305f5e1008381611e7557611e746134c9565b5b0492506008810190505b6127108310611ea4576127108381611e9a57611e996134c9565b5b0492506004810190505b60648310611ec75760648381611ebd57611ebc6134c9565b5b0492506002810190505b600a8310611ed6576001810190505b80915050919050565b600073ffffffffffffffffffffffffffffffffffffffff168273ffffffffffffffffffffffffffffffffffffffff1603611f4e576040517f08c379a0000000000000000000000000000000000000000000000000000000008152600401611f4590613627565b60405180910390fd5b611f5781611b5d565b15611f97576040517f08c379a0000000000000000000000000000000000000000000000000000000008152600401611f8e90613693565b60405180910390fd5b611fa5600083836001611bf9565b611fae81611b5d565b15611fee576040517f08c379a0000000000000000000000000000000000000000000000000000000008152600401611fe590613693565b60405180910390fd5b6001600360008473ffffffffffffffffffffffffffffffffffffffff1673ffffffffffffffffffffffffffffffffffffffff16815260200190815260200160002060008282540192505081905550816002600083815260200190815260200160002060006101000a81548173ffffffffffffffffffffffffffffffffffffffff021916908373ffffffffffffffffffffffffffffffffffffffff160217905550808273ffffffffffffffffffffffffffffffffffffffff16600073ffffffffffffffffffffffffffffffffffffffff167fddf252ad1be2c89b69c2b068fc378daa952ba7f163c4a11628f55a4df523b3ef60405160405180910390a46120f8600083836001611bff565b5050565b6000808273ffffffffffffffffffffffffffffffffffffffff163b119050919050565b6000604051905090565b600080fd5b600080fd5b60007fffffffff0000000000000000000000000000000000000000000000000000000082169050919050565b61216881612133565b811461217357600080fd5b50565b6000813590506121858161215f565b92915050565b6000602082840312156121a1576121a0612129565b5b60006121af84828501612176565b91505092915050565b60008115159050919050565b6121cd816121b8565b82525050565b60006020820190506121e860008301846121c4565b92915050565b600081519050919050565b600082825260208201905092915050565b60005b8381101561222857808201518184015260208101905061220d565b60008484015250505050565b6000601f19601f8301169050919050565b6000612250826121ee565b61225a81856121f9565b935061226a81856020860161220a565b61227381612234565b840191505092915050565b600060208201905081810360008301526122988184612245565b905092915050565b6000819050919050565b6122b3816122a0565b81146122be57600080fd5b50565b6000813590506122d0816122aa565b92915050565b6000602082840312156122ec576122eb612129565b5b60006122fa848285016122c1565b91505092915050565b600073ffffffffffffffffffffffffffffffffffffffff82169050919050565b600061232e82612303565b9050919050565b61233e81612323565b82525050565b60006020820190506123596000830184612335565b92915050565b61236881612323565b811461237357600080fd5b50565b6000813590506123858161235f565b92915050565b600080604083850312156123a2576123a1612129565b5b60006123b085828601612376565b92505060206123c1858286016122c1565b9150509250929050565b6123d4816122a0565b82525050565b6000610120820190506123f0600083018c6123cb565b8181036020830152612402818b612245565b9050612411604083018a6123cb565b61241e60608301896123cb565b61242b60808301886123cb565b81810360a083015261243d8187612245565b905081810360c08301526124518186612245565b905081810360e08301526124658185612245565b9050612475610100830184612335565b9a9950505050505050505050565b600081519050919050565b600082825260208201905092915050565b6000819050602082019050919050565b6124b8816122a0565b82525050565b60006124ca83836124af565b60208301905092915050565b6000602082019050919050565b60006124ee82612483565b6124f8818561248e565b93506125038361249f565b8060005b8381101561253457815161251b88826124be565b9750612526836124d6565b925050600181019050612507565b5085935050505092915050565b6000602082019050818103600083015261255b81846124e3565b905092915050565b600060208201905061257860008301846123cb565b92915050565b6000806040838503121561259557612594612129565b5b60006125a3858286016122c1565b92505060206125b4858286016122c1565b9150509250929050565b6000806000606084860312156125d7576125d6612129565b5b60006125e586828701612376565b93505060206125f686828701612376565b9250506040612607868287016122c1565b9150509250925092565b60006020828403121561262757612626612129565b5b600061263584828501612376565b91505092915050565b612647816121b8565b811461265257600080fd5b50565b6000813590506126648161263e565b92915050565b6000806040838503121561268157612680612129565b5b600061268f85828601612376565b92505060206126a085828601612655565b9150509250929050565b600080fd5b600080fd5b7f4e487b7100000000000000000000000000000000000000000000000000000000600052604160045260246000fd5b6126ec82612234565b810181811067ffffffffffffffff8211171561270b5761270a6126b4565b5b80604052505050565b600061271e61211f565b905061272a82826126e3565b919050565b600067ffffffffffffffff82111561274a576127496126b4565b5b61275382612234565b9050602081019050919050565b82818337600083830152505050565b600061278261277d8461272f565b612714565b90508281526020810184848401111561279e5761279d6126af565b5b6127a9848285612760565b509392505050565b600082601f8301126127c6576127c56126aa565b5b81356127d684826020860161276f565b91505092915050565b60008060008060008060c087890312156127fc576127fb612129565b5b600087013567ffffffffffffffff81111561281a5761281961212e565b5b61282689828a016127b1565b965050602061283789828a016122c1565b955050604061284889828a016122c1565b945050606087013567ffffffffffffffff8111156128695761286861212e565b5b61287589828a016127b1565b935050608087013567ffffffffffffffff8111156128965761289561212e565b5b6128a289828a016127b1565b92505060a087013567ffffffffffffffff8111156128c3576128c261212e565b5b6128cf89828a016127b1565b9150509295509295509295565b600067ffffffffffffffff8211156128f7576128f66126b4565b5b61290082612234565b9050602081019050919050565b600061292061291b846128dc565b612714565b90508281526020810184848401111561293c5761293b6126af565b5b612947848285612760565b509392505050565b600082601f830112612964576129636126aa565b5b813561297484826020860161290d565b91505092915050565b6000806000806080858703121561299757612996612129565b5b60006129a587828801612376565b94505060206129b687828801612376565b93505060406129c7878288016122c1565b925050606085013567ffffffffffffffff8111156129e8576129e761212e565b5b6129f48782880161294f565b91505092959194509250565b60008060408385031215612a1757612a16612129565b5b6000612a2585828601612376565b9250506020612a3685828601612376565b9150509250929050565b7f4e487b7100000000000000000000000000000000000000000000000000000000600052602260045260246000fd5b60006002820490506001821680612a8757607f821691505b602082108103612a9a57612a99612a40565b5b50919050565b7f4552433732313a20617070726f76616c20746f2063757272656e74206f776e6560008201527f7200000000000000000000000000000000000000000000000000000000000000602082015250565b6000612afc6021836121f9565b9150612b0782612aa0565b604082019050919050565b60006020820190508181036000830152612b2b81612aef565b9050919050565b7f4552433732313a20617070726f76652063616c6c6572206973206e6f7420746f60008201527f6b656e206f776e6572206f7220617070726f76656420666f7220616c6c000000602082015250565b6000612b8e603d836121f9565b9150612b9982612b32565b604082019050919050565b60006020820190508181036000830152612bbd81612b81565b9050919050565b7f6576656e7420646f6573206e6f74206578697374000000000000000000000000600082015250565b6000612bfa6014836121f9565b9150612c0582612bc4565b602082019050919050565b60006020820190508181036000830152612c2981612bed565b9050919050565b7f6c65737320616d6f756e74000000000000000000000000000000000000000000600082015250565b6000612c66600b836121f9565b9150612c7182612c30565b602082019050919050565b60006020820190508181036000830152612c9581612c59565b9050919050565b7f7365617420646f6573206e6f7420657869737400000000000000000000000000600082015250565b6000612cd26013836121f9565b9150612cdd82612c9c565b602082019050919050565b60006020820190508181036000830152612d0181612cc5565b9050919050565b7f4e487b7100000000000000000000000000000000000000000000000000000000600052601160045260246000fd5b6000612d42826122a0565b9150612d4d836122a0565b9250828203905081811115612d6557612d64612d08565b5b92915050565b6000612d76826122a0565b9150612d81836122a0565b9250828201905080821115612d9957612d98612d08565b5b92915050565b7f4552433732313a2063616c6c6572206973206e6f7420746f6b656e206f776e6560008201527f72206f7220617070726f76656400000000000000000000000000000000000000602082015250565b6000612dfb602d836121f9565b9150612e0682612d9f565b604082019050919050565b60006020820190508181036000830152612e2a81612dee565b9050919050565b7f4552433732313a20696e76616c696420746f6b656e2049440000000000000000600082015250565b6000612e676018836121f9565b9150612e7282612e31565b602082019050919050565b60006020820190508181036000830152612e9681612e5a565b9050919050565b7f4552433732313a2061646472657373207a65726f206973206e6f74206120766160008201527f6c6964206f776e65720000000000000000000000000000000000000000000000602082015250565b6000612ef96029836121f9565b9150612f0482612e9d565b604082019050919050565b60006020820190508181036000830152612f2881612eec565b9050919050565b60008190508160005260206000209050919050565b60006020601f8301049050919050565b600082821b905092915050565b600060088302612f917fffffffffffffffffffffffffffffffffffffffffffffffffffffffffffffffff82612f54565b612f9b8683612f54565b95508019841693508086168417925050509392505050565b6000819050919050565b6000612fd8612fd3612fce846122a0565b612fb3565b6122a0565b9050919050565b6000819050919050565b612ff283612fbd565b613006612ffe82612fdf565b848454612f61565b825550505050565b600090565b61301b61300e565b613026818484612fe9565b505050565b5b8181101561304a5761303f600082613013565b60018101905061302c565b5050565b601f82111561308f5761306081612f2f565b61306984612f44565b81016020851015613078578190505b61308c61308485612f44565b83018261302b565b50505b505050565b600082821c905092915050565b60006130b260001984600802613094565b1980831691505092915050565b60006130cb83836130a1565b9150826002028217905092915050565b6130e4826121ee565b67ffffffffffffffff8111156130fd576130fc6126b4565b5b6131078254612a6f565b61311282828561304e565b600060209050601f8311600181146131455760008415613133578287015190505b61313d85826130bf565b8655506131a5565b601f19841661315386612f2f565b60005b8281101561317b57848901518255600182019150602085019450602081019050613156565b868310156131985784890151613194601f8916826130a1565b8355505b6001600288020188555050505b505050505050565b6000610100820190506131c3600083018b6123cb565b81810360208301526131d5818a612245565b90506131e460408301896123cb565b6131f160608301886123cb565b81810360808301526132038187612245565b905081810360a08301526132178186612245565b905081810360c083015261322b8185612245565b905061323a60e0830184612335565b9998505050505050505050565b600081905092915050565b600061325d826121ee565b6132678185613247565b935061327781856020860161220a565b80840191505092915050565b600061328f8285613252565b915061329b8284613252565b91508190509392505050565b7f4552433732313a207472616e736665722066726f6d20696e636f72726563742060008201527f6f776e6572000000000000000000000000000000000000000000000000000000602082015250565b60006133036025836121f9565b915061330e826132a7565b604082019050919050565b60006020820190508181036000830152613332816132f6565b9050919050565b7f4552433732313a207472616e7366657220746f20746865207a65726f2061646460008201527f7265737300000000000000000000000000000000000000000000000000000000602082015250565b60006133956024836121f9565b91506133a082613339565b604082019050919050565b600060208201905081810360008301526133c481613388565b9050919050565b7f4552433732313a20617070726f766520746f2063616c6c657200000000000000600082015250565b60006134016019836121f9565b915061340c826133cb565b602082019050919050565b60006020820190508181036000830152613430816133f4565b9050919050565b7f4552433732313a207472616e7366657220746f206e6f6e20455243373231526560008201527f63656976657220696d706c656d656e7465720000000000000000000000000000602082015250565b60006134936032836121f9565b915061349e82613437565b604082019050919050565b600060208201905081810360008301526134c281613486565b9050919050565b7f4e487b7100000000000000000000000000000000000000000000000000000000600052601260045260246000fd5b600081519050919050565b600082825260208201905092915050565b600061351f826134f8565b6135298185613503565b935061353981856020860161220a565b61354281612234565b840191505092915050565b60006080820190506135626000830187612335565b61356f6020830186612335565b61357c60408301856123cb565b818103606083015261358e8184613514565b905095945050505050565b6000815190506135a88161215f565b92915050565b6000602082840312156135c4576135c3612129565b5b60006135d284828501613599565b91505092915050565b7f4552433732313a206d696e7420746f20746865207a65726f2061646472657373600082015250565b60006136116020836121f9565b915061361c826135db565b602082019050919050565b6000602082019050818103600083015261364081613604565b9050919050565b7f4552433732313a20746f6b656e20616c7265616479206d696e74656400000000600082015250565b600061367d601c836121f9565b915061368882613647565b602082019050919050565b600060208201905081810360008301526136ac81613670565b905091905056fea2646970667358221220fc3cc428fbfbc27308271e19de0646283daf65160aa3567e6336495fc038c82764736f6c63430008110033",
  "linkReferences": {},
  "deployedLinkReferences": {}
}