{
  "_format": "hh-sol-artifact-1",
  "contractName": "Booking",
  "sourceName": "contracts/Booking.sol",
  "abi": [
    {
      "inputs": [],
      "stateMutability": "nonpayable",
      "type": "constructor"
    },
    {
      "anonymous": false,
      "inputs": [
        {
          "indexed": true,
          "internalType": "address",
          "name": "owner",
          "type": "address"
        },
        {
          "indexed": true,
          "internalType": "address",
          "name": "approved",
          "type": "address"
        },
        {
          "indexed": true,
          "internalType": "uint256",
          "name": "tokenId",
          "type": "uint256"
        }
      ],
      "name": "Approval",
      "type": "event"
    },
    {
      "anonymous": false,
      "inputs": [
        {
          "indexed": true,
          "internalType": "address",
          "name": "owner",
          "type": "address"
        },
        {
          "indexed": true,
          "internalType": "address",
          "name": "operator",
          "type": "address"
        },
        {
          "indexed": false,
          "internalType": "bool",
          "name": "approved",
          "type": "bool"
        }
      ],
      "name": "ApprovalForAll",
      "type": "event"
    },
    {
      "anonymous": false,
      "inputs": [
        {
          "indexed": false,
          "internalType": "uint256",
          "name": "id",
          "type": "uint256"
        },
        {
          "indexed": false,
          "internalType": "string",
          "name": "name",
          "type": "string"
        },
        {
          "indexed": false,
          "internalType": "uint256",
          "name": "maxTickets",
          "type": "uint256"
        },
        {
          "indexed": false,
          "internalType": "uint256",
          "name": "cost",
          "type": "uint256"
        },
        {
          "indexed": false,
          "internalType": "string",
          "name": "date",
          "type": "string"
        },
        {
          "indexed": false,
          "internalType": "string",
          "name": "time",
          "type": "string"
        },
        {
          "indexed": false,
          "internalType": "string",
          "name": "location",
          "type": "string"
        },
        {
          "indexed": false,
          "internalType": "address",
          "name": "listedBy",
          "type": "address"
        }
      ],
      "name": "EventListed",
      "type": "event"
    },
    {
      "anonymous": false,
      "inputs": [
        {
          "indexed": true,
          "internalType": "address",
          "name": "from",
          "type": "address"
        },
        {
          "indexed": true,
          "internalType": "address",
          "name": "to",
          "type": "address"
        },
        {
          "indexed": true,
          "internalType": "uint256",
          "name": "tokenId",
          "type": "uint256"
        }
      ],
      "name": "Transfer",
      "type": "event"
    },
    {
      "inputs": [
        {
          "internalType": "address",
          "name": "to",
          "type": "address"
        },
        {
          "internalType": "uint256",
          "name": "tokenId",
          "type": "uint256"
        }
      ],
      "name": "approve",
      "outputs": [],
      "stateMutability": "nonpayable",
      "type": "function"
    },
    {
      "inputs": [
        {
          "internalType": "address",
          "name": "owner",
          "type": "address"
        }
      ],
      "name": "balanceOf",
      "outputs": [
        {
          "internalType": "uint256",
          "name": "",
          "type": "uint256"
        }
      ],
      "stateMutability": "view",
      "type": "function"
    },
    {
      "inputs": [
        {
          "internalType": "uint256",
          "name": "",
          "type": "uint256"
        }
      ],
      "name": "events",
      "outputs": [
        {
          "internalType": "uint256",
          "name": "id",
          "type": "uint256"
        },
        {
          "internalType": "string",
          "name": "name",
          "type": "string"
        },
        {
          "internalType": "uint256",
          "name": "tickets",
          "type": "uint256"
        },
        {
          "internalType": "uint256",
          "name": "maxTickets",
          "type": "uint256"
        },
        {
          "internalType": "uint256",
          "name": "cost",
          "type": "uint256"
        },
        {
          "internalType": "string",
          "name": "date",
          "type": "string"
        },
        {
          "internalType": "string",
          "name": "time",
          "type": "string"
        },
        {
          "internalType": "string",
          "name": "location",
          "type": "string"
        },
        {
          "internalType": "address",
          "name": "listedBy",
          "type": "address"
        }
      ],
      "stateMutability": "view",
      "type": "function"
    },
    {
      "inputs": [
        {
          "internalType": "uint256",
          "name": "tokenId",
          "type": "uint256"
        }
      ],
      "name": "getApproved",
      "outputs": [
        {
          "internalType": "address",
          "name": "",
          "type": "address"
        }
      ],
      "stateMutability": "view",
      "type": "function"
    },
    {
      "inputs": [
        {
          "internalType": "address",
          "name": "owner",
          "type": "address"
        },
        {
          "internalType": "address",
          "name": "operator",
          "type": "address"
        }
      ],
      "name": "isApprovedForAll",
      "outputs": [
        {
          "internalType": "bool",
          "name": "",
          "type": "bool"
        }
      ],
      "stateMutability": "view",
      "type": "function"
    },
    {
      "inputs": [
        {
          "internalType": "string",
          "name": "_name",
          "type": "string"
        },
        {
          "internalType": "uint256",
          "name": "_maxTickets",
          "type": "uint256"
        },
        {
          "internalType": "uint256",
          "name": "_cost",
          "type": "uint256"
        },
        {
          "internalType": "string",
          "name": "_time",
          "type": "string"
        },
        {
          "internalType": "string",
          "name": "_location",
          "type": "string"
        },
        {
          "internalType": "string",
          "name": "_date",
          "type": "string"
        }
      ],
      "name": "listEvent",
      "outputs": [],
      "stateMutability": "nonpayable",
      "type": "function"
    },
    {
      "inputs": [],
      "name": "name",
      "outputs": [
        {
          "internalType": "string",
          "name": "",
          "type": "string"
        }
      ],
      "stateMutability": "view",
      "type": "function"
    },
    {
      "inputs": [],
      "name": "owner",
      "outputs": [
        {
          "internalType": "address",
          "name": "",
          "type": "address"
        }
      ],
      "stateMutability": "view",
      "type": "function"
    },
    {
      "inputs": [
        {
          "internalType": "uint256",
          "name": "tokenId",
          "type": "uint256"
        }
      ],
      "name": "ownerOf",
      "outputs": [
        {
          "internalType": "address",
          "name": "",
          "type": "address"
        }
      ],
      "stateMutability": "view",
      "type": "function"
    },
    {
      "inputs": [
        {
          "internalType": "address",
          "name": "from",
          "type": "address"
        },
        {
          "internalType": "address",
          "name": "to",
          "type": "address"
        },
        {
          "internalType": "uint256",
          "name": "tokenId",
          "type": "uint256"
        }
      ],
      "name": "safeTransferFrom",
      "outputs": [],
      "stateMutability": "nonpayable",
      "type": "function"
    },
    {
      "inputs": [
        {
          "internalType": "address",
          "name": "from",
          "type": "address"
        },
        {
          "internalType": "address",
          "name": "to",
          "type": "address"
        },
        {
          "internalType": "uint256",
          "name": "tokenId",
          "type": "uint256"
        },
        {
          "internalType": "bytes",
          "name": "data",
          "type": "bytes"
        }
      ],
      "name": "safeTransferFrom",
      "outputs": [],
      "stateMutability": "nonpayable",
      "type": "function"
    },
    {
      "inputs": [
        {
          "internalType": "address",
          "name": "operator",
          "type": "address"
        },
        {
          "internalType": "bool",
          "name": "approved",
          "type": "bool"
        }
      ],
      "name": "setApprovalForAll",
      "outputs": [],
      "stateMutability": "nonpayable",
      "type": "function"
    },
    {
      "inputs": [
        {
          "internalType": "bytes4",
          "name": "interfaceId",
          "type": "bytes4"
        }
      ],
      "name": "supportsInterface",
      "outputs": [
        {
          "internalType": "bool",
          "name": "",
          "type": "bool"
        }
      ],
      "stateMutability": "view",
      "type": "function"
    },
    {
      "inputs": [],
      "name": "symbol",
      "outputs": [
        {
          "internalType": "string",
          "name": "",
          "type": "string"
        }
      ],
      "stateMutability": "view",
      "type": "function"
    },
    {
      "inputs": [
        {
          "internalType": "uint256",
          "name": "tokenId",
          "type": "uint256"
        }
      ],
      "name": "tokenURI",
      "outputs": [
        {
          "internalType": "string",
          "name": "",
          "type": "string"
        }
      ],
      "stateMutability": "view",
      "type": "function"
    },
    {
      "inputs": [],
      "name": "totalEvents",
      "outputs": [
        {
          "internalType": "uint256",
          "name": "",
          "type": "uint256"
        }
      ],
      "stateMutability": "view",
      "type": "function"
    },
    {
      "inputs": [],
      "name": "totalSupply",
      "outputs": [
        {
          "internalType": "uint256",
          "name": "",
          "type": "uint256"
        }
      ],
      "stateMutability": "view",
      "type": "function"
    },
    {
      "inputs": [
        {
          "internalType": "address",
          "name": "from",
          "type": "address"
        },
        {
          "internalType": "address",
          "name": "to",
          "type": "address"
        },
        {
          "internalType": "uint256",
          "name": "tokenId",
          "type": "uint256"
        }
      ],
      "name": "transferFrom",
      "outputs": [],
      "stateMutability": "nonpayable",
      "type": "function"
    }
  ],
  "bytecode": "0x6080604052600060065560006007553480156200001b57600080fd5b506040518060400160405280600781526020017f426f6f6b696e67000000000000000000000000000000000000000000000000008152506040518060400160405280600481526020017f424f4f4b0000000000000000000000000000000000000000000000000000000081525081600090816200009991906200036f565b508060019081620000ab91906200036f565b50505033600860006101000a81548173ffffffffffffffffffffffffffffffffffffffff021916908373ffffffffffffffffffffffffffffffffffffffff16021790555062000456565b600081519050919050565b7f4e487b7100000000000000000000000000000000000000000000000000000000600052604160045260246000fd5b7f4e487b7100000000000000000000000000000000000000000000000000000000600052602260045260246000fd5b600060028204905060018216806200017757607f821691505b6020821081036200018d576200018c6200012f565b5b50919050565b60008190508160005260206000209050919050565b60006020601f8301049050919050565b600082821b905092915050565b600060088302620001f77fffffffffffffffffffffffffffffffffffffffffffffffffffffffffffffffff82620001b8565b620002038683620001b8565b95508019841693508086168417925050509392505050565b6000819050919050565b6000819050919050565b6000620002506200024a62000244846200021b565b62000225565b6200021b565b9050919050565b6000819050919050565b6200026c836200022f565b620002846200027b8262000257565b848454620001c5565b825550505050565b600090565b6200029b6200028c565b620002a881848462000261565b505050565b5b81811015620002d057620002c460008262000291565b600181019050620002ae565b5050565b601f8211156200031f57620002e98162000193565b620002f484620001a8565b8101602085101562000304578190505b6200031c6200031385620001a8565b830182620002ad565b50505b505050565b600082821c905092915050565b6000620003446000198460080262000324565b1980831691505092915050565b60006200035f838362000331565b9150826002028217905092915050565b6200037a82620000f5565b67ffffffffffffffff81111562000396576200039562000100565b5b620003a282546200015e565b620003af828285620002d4565b600060209050601f831160018114620003e75760008415620003d2578287015190505b620003de858262000351565b8655506200044e565b601f198416620003f78662000193565b60005b828110156200042157848901518255600182019150602085019450602081019050620003fa565b868310156200044157848901516200043d601f89168262000331565b8355505b6001600288020188555050505b505050505050565b612c3380620004666000396000f3fe608060405234801561001057600080fd5b50600436106101165760003560e01c806370a08231116100a2578063abcda41d11610071578063abcda41d146102fb578063b88d4fde14610317578063ba87068614610333578063c87b56dd14610351578063e985e9c51461038157610116565b806370a08231146102735780638da5cb5b146102a357806395d89b41146102c1578063a22cb465146102df57610116565b80630b791430116100e95780630b791430146101b557806318160ddd146101ed57806323b872dd1461020b57806342842e0e146102275780636352211e1461024357610116565b806301ffc9a71461011b57806306fdde031461014b578063081812fc14610169578063095ea7b314610199575b600080fd5b61013560048036038101906101309190611a45565b6103b1565b6040516101429190611a8d565b60405180910390f35b610153610493565b6040516101609190611b38565b60405180910390f35b610183600480360381019061017e9190611b90565b610525565b6040516101909190611bfe565b60405180910390f35b6101b360048036038101906101ae9190611c45565b61056b565b005b6101cf60048036038101906101ca9190611b90565b610682565b6040516101e499989796959493929190611c94565b60405180910390f35b6101f5610910565b6040516102029190611d3d565b60405180910390f35b61022560048036038101906102209190611d58565b610916565b005b610241600480360381019061023c9190611d58565b610976565b005b61025d60048036038101906102589190611b90565b610996565b60405161026a9190611bfe565b60405180910390f35b61028d60048036038101906102889190611dab565b610a1c565b60405161029a9190611d3d565b60405180910390f35b6102ab610ad3565b6040516102b89190611bfe565b60405180910390f35b6102c9610af9565b6040516102d69190611b38565b60405180910390f35b6102f960048036038101906102f49190611e04565b610b8b565b005b61031560048036038101906103109190611f79565b610ba1565b005b610331600480360381019061032c9190612117565b610d3d565b005b61033b610d9f565b6040516103489190611d3d565b60405180910390f35b61036b60048036038101906103669190611b90565b610da5565b6040516103789190611b38565b60405180910390f35b61039b6004803603810190610396919061219a565b610e0d565b6040516103a89190611a8d565b60405180910390f35b60007f80ac58cd000000000000000000000000000000000000000000000000000000007bffffffffffffffffffffffffffffffffffffffffffffffffffffffff1916827bffffffffffffffffffffffffffffffffffffffffffffffffffffffff1916148061047c57507f5b5e139f000000000000000000000000000000000000000000000000000000007bffffffffffffffffffffffffffffffffffffffffffffffffffffffff1916827bffffffffffffffffffffffffffffffffffffffffffffffffffffffff1916145b8061048c575061048b82610ea1565b5b9050919050565b6060600080546104a290612209565b80601f01602080910402602001604051908101604052809291908181526020018280546104ce90612209565b801561051b5780601f106104f05761010080835404028352916020019161051b565b820191906000526020600020905b8154815290600101906020018083116104fe57829003601f168201915b5050505050905090565b600061053082610f0b565b6004600083815260200190815260200160002060009054906101000a900473ffffffffffffffffffffffffffffffffffffffff169050919050565b600061057682610996565b90508073ffffffffffffffffffffffffffffffffffffffff168373ffffffffffffffffffffffffffffffffffffffff16036105e6576040517f08c379a00000000000000000000000000000000000000000000000000000000081526004016105dd906122ac565b60405180910390fd5b8073ffffffffffffffffffffffffffffffffffffffff16610605610f56565b73ffffffffffffffffffffffffffffffffffffffff16148061063457506106338161062e610f56565b610e0d565b5b610673576040517f08c379a000000000000000000000000000000000000000000000000000000000815260040161066a9061233e565b60405180910390fd5b61067d8383610f5e565b505050565b60096020528060005260406000206000915090508060000154908060010180546106ab90612209565b80601f01602080910402602001604051908101604052809291908181526020018280546106d790612209565b80156107245780601f106106f957610100808354040283529160200191610724565b820191906000526020600020905b81548152906001019060200180831161070757829003601f168201915b50505050509080600201549080600301549080600401549080600501805461074b90612209565b80601f016020809104026020016040519081016040528092919081815260200182805461077790612209565b80156107c45780601f10610799576101008083540402835291602001916107c4565b820191906000526020600020905b8154815290600101906020018083116107a757829003601f168201915b5050505050908060060180546107d990612209565b80601f016020809104026020016040519081016040528092919081815260200182805461080590612209565b80156108525780601f1061082757610100808354040283529160200191610852565b820191906000526020600020905b81548152906001019060200180831161083557829003601f168201915b50505050509080600701805461086790612209565b80601f016020809104026020016040519081016040528092919081815260200182805461089390612209565b80156108e05780601f106108b5576101008083540402835291602001916108e0565b820191906000526020600020905b8154815290600101906020018083116108c357829003601f168201915b5050505050908060080160009054906101000a900473ffffffffffffffffffffffffffffffffffffffff16905089565b60075481565b610927610921610f56565b82611017565b610966576040517f08c379a000000000000000000000000000000000000000000000000000000000815260040161095d906123d0565b60405180910390fd5b6109718383836110ac565b505050565b61099183838360405180602001604052806000815250610d3d565b505050565b6000806109a2836113a5565b9050600073ffffffffffffffffffffffffffffffffffffffff168173ffffffffffffffffffffffffffffffffffffffff1603610a13576040517f08c379a0000000000000000000000000000000000000000000000000000000008152600401610a0a9061243c565b60405180910390fd5b80915050919050565b60008073ffffffffffffffffffffffffffffffffffffffff168273ffffffffffffffffffffffffffffffffffffffff1603610a8c576040517f08c379a0000000000000000000000000000000000000000000000000000000008152600401610a83906124ce565b60405180910390fd5b600360008373ffffffffffffffffffffffffffffffffffffffff1673ffffffffffffffffffffffffffffffffffffffff168152602001908152602001600020549050919050565b600860009054906101000a900473ffffffffffffffffffffffffffffffffffffffff1681565b606060018054610b0890612209565b80601f0160208091040260200160405190810160405280929190818152602001828054610b3490612209565b8015610b815780601f10610b5657610100808354040283529160200191610b81565b820191906000526020600020905b815481529060010190602001808311610b6457829003601f168201915b5050505050905090565b610b9d610b96610f56565b83836113e2565b5050565b6001600654610bb0919061251d565b60068190555060405180610120016040528060065481526020018781526020018681526020018681526020018581526020018281526020018481526020018381526020013373ffffffffffffffffffffffffffffffffffffffff16815250600960006006548152602001908152602001600020600082015181600001556020820151816001019081610c4291906126fd565b5060408201518160020155606082015181600301556080820151816004015560a0820151816005019081610c7691906126fd565b5060c0820151816006019081610c8c91906126fd565b5060e0820151816007019081610ca291906126fd565b506101008201518160080160006101000a81548173ffffffffffffffffffffffffffffffffffffffff021916908373ffffffffffffffffffffffffffffffffffffffff1602179055509050507f2df6853f956aa7077b00d589fcaf8ea4dd7377da3ca577dc3886fa8847ed363d60065487878785888833604051610d2d9897969594939291906127cf565b60405180910390a1505050505050565b610d4e610d48610f56565b83611017565b610d8d576040517f08c379a0000000000000000000000000000000000000000000000000000000008152600401610d84906123d0565b60405180910390fd5b610d998484848461154e565b50505050565b60065481565b6060610db082610f0b565b6000610dba6115aa565b90506000815111610dda5760405180602001604052806000815250610e05565b80610de4846115c1565b604051602001610df59291906128a5565b6040516020818303038152906040525b915050919050565b6000600560008473ffffffffffffffffffffffffffffffffffffffff1673ffffffffffffffffffffffffffffffffffffffff16815260200190815260200160002060008373ffffffffffffffffffffffffffffffffffffffff1673ffffffffffffffffffffffffffffffffffffffff16815260200190815260200160002060009054906101000a900460ff16905092915050565b60007f01ffc9a7000000000000000000000000000000000000000000000000000000007bffffffffffffffffffffffffffffffffffffffffffffffffffffffff1916827bffffffffffffffffffffffffffffffffffffffffffffffffffffffff1916149050919050565b610f148161168f565b610f53576040517f08c379a0000000000000000000000000000000000000000000000000000000008152600401610f4a9061243c565b60405180910390fd5b50565b600033905090565b816004600083815260200190815260200160002060006101000a81548173ffffffffffffffffffffffffffffffffffffffff021916908373ffffffffffffffffffffffffffffffffffffffff160217905550808273ffffffffffffffffffffffffffffffffffffffff16610fd183610996565b73ffffffffffffffffffffffffffffffffffffffff167f8c5be1e5ebec7d5bd14f71427d1e84f3dd0314c0f7b2291e5b200ac8c7c3b92560405160405180910390a45050565b60008061102383610996565b90508073ffffffffffffffffffffffffffffffffffffffff168473ffffffffffffffffffffffffffffffffffffffff16148061106557506110648185610e0d565b5b806110a357508373ffffffffffffffffffffffffffffffffffffffff1661108b84610525565b73ffffffffffffffffffffffffffffffffffffffff16145b91505092915050565b8273ffffffffffffffffffffffffffffffffffffffff166110cc82610996565b73ffffffffffffffffffffffffffffffffffffffff1614611122576040517f08c379a00000000000000000000000000000000000000000000000000000000081526004016111199061293b565b60405180910390fd5b600073ffffffffffffffffffffffffffffffffffffffff168273ffffffffffffffffffffffffffffffffffffffff1603611191576040517f08c379a0000000000000000000000000000000000000000000000000000000008152600401611188906129cd565b60405180910390fd5b61119e83838360016116d0565b8273ffffffffffffffffffffffffffffffffffffffff166111be82610996565b73ffffffffffffffffffffffffffffffffffffffff1614611214576040517f08c379a000000000000000000000000000000000000000000000000000000000815260040161120b9061293b565b60405180910390fd5b6004600082815260200190815260200160002060006101000a81549073ffffffffffffffffffffffffffffffffffffffff02191690556001600360008573ffffffffffffffffffffffffffffffffffffffff1673ffffffffffffffffffffffffffffffffffffffff168152602001908152602001600020600082825403925050819055506001600360008473ffffffffffffffffffffffffffffffffffffffff1673ffffffffffffffffffffffffffffffffffffffff16815260200190815260200160002060008282540192505081905550816002600083815260200190815260200160002060006101000a81548173ffffffffffffffffffffffffffffffffffffffff021916908373ffffffffffffffffffffffffffffffffffffffff160217905550808273ffffffffffffffffffffffffffffffffffffffff168473ffffffffffffffffffffffffffffffffffffffff167fddf252ad1be2c89b69c2b068fc378daa952ba7f163c4a11628f55a4df523b3ef60405160405180910390a46113a083838360016116d6565b505050565b60006002600083815260200190815260200160002060009054906101000a900473ffffffffffffffffffffffffffffffffffffffff169050919050565b8173ffffffffffffffffffffffffffffffffffffffff168373ffffffffffffffffffffffffffffffffffffffff1603611450576040517f08c379a000000000000000000000000000000000000000000000000000000000815260040161144790612a39565b60405180910390fd5b80600560008573ffffffffffffffffffffffffffffffffffffffff1673ffffffffffffffffffffffffffffffffffffffff16815260200190815260200160002060008473ffffffffffffffffffffffffffffffffffffffff1673ffffffffffffffffffffffffffffffffffffffff16815260200190815260200160002060006101000a81548160ff0219169083151502179055508173ffffffffffffffffffffffffffffffffffffffff168373ffffffffffffffffffffffffffffffffffffffff167f17307eab39ab6107e8899845ad3d59bd9653f200f220920489ca2b5937696c31836040516115419190611a8d565b60405180910390a3505050565b6115598484846110ac565b611565848484846116dc565b6115a4576040517f08c379a000000000000000000000000000000000000000000000000000000000815260040161159b90612acb565b60405180910390fd5b50505050565b606060405180602001604052806000815250905090565b6060600060016115d084611863565b01905060008167ffffffffffffffff8111156115ef576115ee611e4e565b5b6040519080825280601f01601f1916602001820160405280156116215781602001600182028036833780820191505090505b509050600082602001820190505b600115611684578080600190039150507f3031323334353637383961626364656600000000000000000000000000000000600a86061a8153600a858161167857611677612aeb565b5b0494506000850361162f575b819350505050919050565b60008073ffffffffffffffffffffffffffffffffffffffff166116b1836113a5565b73ffffffffffffffffffffffffffffffffffffffff1614159050919050565b50505050565b50505050565b60006116fd8473ffffffffffffffffffffffffffffffffffffffff166119b6565b15611856578373ffffffffffffffffffffffffffffffffffffffff1663150b7a02611726610f56565b8786866040518563ffffffff1660e01b81526004016117489493929190612b6f565b6020604051808303816000875af192505050801561178457506040513d601f19601f820116820180604052508101906117819190612bd0565b60015b611806573d80600081146117b4576040519150601f19603f3d011682016040523d82523d6000602084013e6117b9565b606091505b5060008151036117fe576040517f08c379a00000000000000000000000000000000000000000000000000000000081526004016117f590612acb565b60405180910390fd5b805181602001fd5b63150b7a0260e01b7bffffffffffffffffffffffffffffffffffffffffffffffffffffffff1916817bffffffffffffffffffffffffffffffffffffffffffffffffffffffff19161491505061185b565b600190505b949350505050565b600080600090507a184f03e93ff9f4daa797ed6e38ed64bf6a1f01000000000000000083106118c1577a184f03e93ff9f4daa797ed6e38ed64bf6a1f01000000000000000083816118b7576118b6612aeb565b5b0492506040810190505b6d04ee2d6d415b85acef810000000083106118fe576d04ee2d6d415b85acef810000000083816118f4576118f3612aeb565b5b0492506020810190505b662386f26fc10000831061192d57662386f26fc10000838161192357611922612aeb565b5b0492506010810190505b6305f5e1008310611956576305f5e100838161194c5761194b612aeb565b5b0492506008810190505b612710831061197b57612710838161197157611970612aeb565b5b0492506004810190505b6064831061199e576064838161199457611993612aeb565b5b0492506002810190505b600a83106119ad576001810190505b80915050919050565b6000808273ffffffffffffffffffffffffffffffffffffffff163b119050919050565b6000604051905090565b600080fd5b600080fd5b60007fffffffff0000000000000000000000000000000000000000000000000000000082169050919050565b611a22816119ed565b8114611a2d57600080fd5b50565b600081359050611a3f81611a19565b92915050565b600060208284031215611a5b57611a5a6119e3565b5b6000611a6984828501611a30565b91505092915050565b60008115159050919050565b611a8781611a72565b82525050565b6000602082019050611aa26000830184611a7e565b92915050565b600081519050919050565b600082825260208201905092915050565b60005b83811015611ae2578082015181840152602081019050611ac7565b60008484015250505050565b6000601f19601f8301169050919050565b6000611b0a82611aa8565b611b148185611ab3565b9350611b24818560208601611ac4565b611b2d81611aee565b840191505092915050565b60006020820190508181036000830152611b528184611aff565b905092915050565b6000819050919050565b611b6d81611b5a565b8114611b7857600080fd5b50565b600081359050611b8a81611b64565b92915050565b600060208284031215611ba657611ba56119e3565b5b6000611bb484828501611b7b565b91505092915050565b600073ffffffffffffffffffffffffffffffffffffffff82169050919050565b6000611be882611bbd565b9050919050565b611bf881611bdd565b82525050565b6000602082019050611c136000830184611bef565b92915050565b611c2281611bdd565b8114611c2d57600080fd5b50565b600081359050611c3f81611c19565b92915050565b60008060408385031215611c5c57611c5b6119e3565b5b6000611c6a85828601611c30565b9250506020611c7b85828601611b7b565b9150509250929050565b611c8e81611b5a565b82525050565b600061012082019050611caa600083018c611c85565b8181036020830152611cbc818b611aff565b9050611ccb604083018a611c85565b611cd86060830189611c85565b611ce56080830188611c85565b81810360a0830152611cf78187611aff565b905081810360c0830152611d0b8186611aff565b905081810360e0830152611d1f8185611aff565b9050611d2f610100830184611bef565b9a9950505050505050505050565b6000602082019050611d526000830184611c85565b92915050565b600080600060608486031215611d7157611d706119e3565b5b6000611d7f86828701611c30565b9350506020611d9086828701611c30565b9250506040611da186828701611b7b565b9150509250925092565b600060208284031215611dc157611dc06119e3565b5b6000611dcf84828501611c30565b91505092915050565b611de181611a72565b8114611dec57600080fd5b50565b600081359050611dfe81611dd8565b92915050565b60008060408385031215611e1b57611e1a6119e3565b5b6000611e2985828601611c30565b9250506020611e3a85828601611def565b9150509250929050565b600080fd5b600080fd5b7f4e487b7100000000000000000000000000000000000000000000000000000000600052604160045260246000fd5b611e8682611aee565b810181811067ffffffffffffffff82111715611ea557611ea4611e4e565b5b80604052505050565b6000611eb86119d9565b9050611ec48282611e7d565b919050565b600067ffffffffffffffff821115611ee457611ee3611e4e565b5b611eed82611aee565b9050602081019050919050565b82818337600083830152505050565b6000611f1c611f1784611ec9565b611eae565b905082815260208101848484011115611f3857611f37611e49565b5b611f43848285611efa565b509392505050565b600082601f830112611f6057611f5f611e44565b5b8135611f70848260208601611f09565b91505092915050565b60008060008060008060c08789031215611f9657611f956119e3565b5b600087013567ffffffffffffffff811115611fb457611fb36119e8565b5b611fc089828a01611f4b565b9650506020611fd189828a01611b7b565b9550506040611fe289828a01611b7b565b945050606087013567ffffffffffffffff811115612003576120026119e8565b5b61200f89828a01611f4b565b935050608087013567ffffffffffffffff8111156120305761202f6119e8565b5b61203c89828a01611f4b565b92505060a087013567ffffffffffffffff81111561205d5761205c6119e8565b5b61206989828a01611f4b565b9150509295509295509295565b600067ffffffffffffffff82111561209157612090611e4e565b5b61209a82611aee565b9050602081019050919050565b60006120ba6120b584612076565b611eae565b9050828152602081018484840111156120d6576120d5611e49565b5b6120e1848285611efa565b509392505050565b600082601f8301126120fe576120fd611e44565b5b813561210e8482602086016120a7565b91505092915050565b60008060008060808587031215612131576121306119e3565b5b600061213f87828801611c30565b945050602061215087828801611c30565b935050604061216187828801611b7b565b925050606085013567ffffffffffffffff811115612182576121816119e8565b5b61218e878288016120e9565b91505092959194509250565b600080604083850312156121b1576121b06119e3565b5b60006121bf85828601611c30565b92505060206121d085828601611c30565b9150509250929050565b7f4e487b7100000000000000000000000000000000000000000000000000000000600052602260045260246000fd5b6000600282049050600182168061222157607f821691505b602082108103612234576122336121da565b5b50919050565b7f4552433732313a20617070726f76616c20746f2063757272656e74206f776e6560008201527f7200000000000000000000000000000000000000000000000000000000000000602082015250565b6000612296602183611ab3565b91506122a18261223a565b604082019050919050565b600060208201905081810360008301526122c581612289565b9050919050565b7f4552433732313a20617070726f76652063616c6c6572206973206e6f7420746f60008201527f6b656e206f776e6572206f7220617070726f76656420666f7220616c6c000000602082015250565b6000612328603d83611ab3565b9150612333826122cc565b604082019050919050565b600060208201905081810360008301526123578161231b565b9050919050565b7f4552433732313a2063616c6c6572206973206e6f7420746f6b656e206f776e6560008201527f72206f7220617070726f76656400000000000000000000000000000000000000602082015250565b60006123ba602d83611ab3565b91506123c58261235e565b604082019050919050565b600060208201905081810360008301526123e9816123ad565b9050919050565b7f4552433732313a20696e76616c696420746f6b656e2049440000000000000000600082015250565b6000612426601883611ab3565b9150612431826123f0565b602082019050919050565b6000602082019050818103600083015261245581612419565b9050919050565b7f4552433732313a2061646472657373207a65726f206973206e6f74206120766160008201527f6c6964206f776e65720000000000000000000000000000000000000000000000602082015250565b60006124b8602983611ab3565b91506124c38261245c565b604082019050919050565b600060208201905081810360008301526124e7816124ab565b9050919050565b7f4e487b7100000000000000000000000000000000000000000000000000000000600052601160045260246000fd5b600061252882611b5a565b915061253383611b5a565b925082820190508082111561254b5761254a6124ee565b5b92915050565b60008190508160005260206000209050919050565b60006020601f8301049050919050565b600082821b905092915050565b6000600883026125b37fffffffffffffffffffffffffffffffffffffffffffffffffffffffffffffffff82612576565b6125bd8683612576565b95508019841693508086168417925050509392505050565b6000819050919050565b60006125fa6125f56125f084611b5a565b6125d5565b611b5a565b9050919050565b6000819050919050565b612614836125df565b61262861262082612601565b848454612583565b825550505050565b600090565b61263d612630565b61264881848461260b565b505050565b5b8181101561266c57612661600082612635565b60018101905061264e565b5050565b601f8211156126b15761268281612551565b61268b84612566565b8101602085101561269a578190505b6126ae6126a685612566565b83018261264d565b50505b505050565b600082821c905092915050565b60006126d4600019846008026126b6565b1980831691505092915050565b60006126ed83836126c3565b9150826002028217905092915050565b61270682611aa8565b67ffffffffffffffff81111561271f5761271e611e4e565b5b6127298254612209565b612734828285612670565b600060209050601f8311600181146127675760008415612755578287015190505b61275f85826126e1565b8655506127c7565b601f19841661277586612551565b60005b8281101561279d57848901518255600182019150602085019450602081019050612778565b868310156127ba57848901516127b6601f8916826126c3565b8355505b6001600288020188555050505b505050505050565b6000610100820190506127e5600083018b611c85565b81810360208301526127f7818a611aff565b90506128066040830189611c85565b6128136060830188611c85565b81810360808301526128258187611aff565b905081810360a08301526128398186611aff565b905081810360c083015261284d8185611aff565b905061285c60e0830184611bef565b9998505050505050505050565b600081905092915050565b600061287f82611aa8565b6128898185612869565b9350612899818560208601611ac4565b80840191505092915050565b60006128b18285612874565b91506128bd8284612874565b91508190509392505050565b7f4552433732313a207472616e736665722066726f6d20696e636f72726563742060008201527f6f776e6572000000000000000000000000000000000000000000000000000000602082015250565b6000612925602583611ab3565b9150612930826128c9565b604082019050919050565b6000602082019050818103600083015261295481612918565b9050919050565b7f4552433732313a207472616e7366657220746f20746865207a65726f2061646460008201527f7265737300000000000000000000000000000000000000000000000000000000602082015250565b60006129b7602483611ab3565b91506129c28261295b565b604082019050919050565b600060208201905081810360008301526129e6816129aa565b9050919050565b7f4552433732313a20617070726f766520746f2063616c6c657200000000000000600082015250565b6000612a23601983611ab3565b9150612a2e826129ed565b602082019050919050565b60006020820190508181036000830152612a5281612a16565b9050919050565b7f4552433732313a207472616e7366657220746f206e6f6e20455243373231526560008201527f63656976657220696d706c656d656e7465720000000000000000000000000000602082015250565b6000612ab5603283611ab3565b9150612ac082612a59565b604082019050919050565b60006020820190508181036000830152612ae481612aa8565b9050919050565b7f4e487b7100000000000000000000000000000000000000000000000000000000600052601260045260246000fd5b600081519050919050565b600082825260208201905092915050565b6000612b4182612b1a565b612b4b8185612b25565b9350612b5b818560208601611ac4565b612b6481611aee565b840191505092915050565b6000608082019050612b846000830187611bef565b612b916020830186611bef565b612b9e6040830185611c85565b8181036060830152612bb08184612b36565b905095945050505050565b600081519050612bca81611a19565b92915050565b600060208284031215612be657612be56119e3565b5b6000612bf484828501612bbb565b9150509291505056fea26469706673582212200d247352fc748ad51cb5096eddd0a8da6f14a19ff2f0c467769693a06754044464736f6c63430008110033",
  "linkReferences": {},
  "deployedLinkReferences": {}
}